:04000000D4EF06F043
:1000080000C016F001C015F0E1CF19F0E2CF1AF0E8
:10001800E9CF17F0EACF18F0C0EC04F0F2A403D04F
:10002800640ED66EF29480A805D00001FD51510AE5
:1000380001E001D0587A80AA05D00001FD51570A85
:1000480001E001D0587C16C000F015C001F017C0BF
:10005800E9FF18C0EAFF19C0E1FF1AC0E2FF11006A
:0A006800000000000000000012007C
:100072001D0E0C6E910E0D6E0D2EFED70C2EFCD7A2
:0200820012006A
:0C008400420E0D6E0D2EFED70000120083
:10009000010118BF02D0819401D0818418BD02D023
:1000A000819601D0818618BB02D0819801D08188C9
:1000B00018B902D0819A01D0818A0001D4B102D04E
:1000C000818E01D0819E818CCFDF819C010118B788
:1000D00002D0819401D0818418B502D0819601D0DC
:1000E000818618B302D0819801D0818818B102D0DE
:1000F000819A01D0818A0001D4B102D0818E01D0D1
:10010000819E818CB1DF819CD4A102D0B2DF01D06D
:04011000B9DF120041
:080114000AAE029E000E12006B
:0E011C00026A016A006A086A036A000E120095
:10012A000B840BAEA0EF00F0010E036E026A016AA7
:0A013A00006A0A360232FF0E1200BE
:0E0144000001D49117C118F1A1DFD48112007F
:100152000C6A0E6A0250D8A4C2EF00F001C002F08D
:1001620000C001F0006A0E860250D8A4C2EF00F06F
:1001720001C002F0016A0E960E880250D8B4D4EF84
:1001820000F00E50035ED8A4D8A0D9EF00F0D890AA
:1001920002BEDEEF00F0003601360236032EC9EF52
:1001A20000F0D9EF00F0010E0C6EB7DFE1EF00F0C6
:1001B200020E0C6EB9DFE1EF00F0040E0C6EA9DF47
:0201C200120029
:1001C4000B820BAEECEF00F0036802680168006874
:0801D4000A360232FF0E120090
:0E01DC00ACB202D00000FCD712C1ADFF120081
:0801EA000B6A0B86FF0E1200E8
:1001F20010D0800E0101126F1AD0C00E126F17D0EC
:10020200940E126F14D0D40E126F11D0800E126F92
:100212000ED001011251010AECE01251020AEDE086
:100222001251030AEDE01251040AEDE0EFD7130573
:10023200006E1251002600C012F100C018F127DF33
:10024200D4910101166B16511425E96E000E152189
:10025200EA6EEE520CE016511425E96E000E1521DD
:10026200EA6EEECF17F16DDF0101162BECD700011C
:04027200D481120021
:10027600AECF01F0ABA202D0AB98AB8801C000F0C4
:02028600120064
:0A028800000E9EBA010E006E120077
:0A0292001D0E0D6E0D2EFED712009A
:10029C000B800BAE5AEF01F0026A0AAEFF0E026E33
:0C02AC00016E006E0A360232FF0E1200D6
:1002B8000101106B0DC1E9FF0EC1EAFFEECF0FF18E
:1002C8000F51000A0EE00FC112F184DF0101102B5B
:1002D80010510D25E96E000E0E21EA6EEECF0FF1DA
:0402E800EFD712003A
:1002EC0001011F6B206B1D5342E01D51FF0A01E001
:1002FC001D07C4DF0050000A01E1FBD7B6DF00C0C8
:10030C001EF101011F511925E16E000E1A21E26E3A
:10031C0000C0E6FF1F2B20511B25E96E000E1C218F
:10032C00EA6EEE501E1902E1202B09D0206B1BC186
:10033C00E9FF1CC1EAFFEE501E1901E1202B2051F0
:10034C001B25E96E000E1C21EA6EEE50000A0EE130
:10035C0020511F5D006E016A000E015A00501925D4
:10036C00E16E01501A21E26EE66A06D0BCD719C1C3
:0A037C00E1FF1AC1E2FFE66A120079
:100386000DC102F00EC103F010C100F011C101F061
:10039600010E0101105F000E115B0050011009E013
:1003A60002C0E1FF03C0E2FF0FC1E6FF024A032AD3
:0C03B600EBD70DC100F00EC101F01200E9
:1003C2000050086E0150006E016A026A036A0B6AED
:1003D2000C6A960E036E0A6A00C001F008C000F0B3
:0803E200086A026AB5DE120090
:1003EA000B6A0350D8B43BEF02F002500A6E028E39
:1003FA008E0E035E03AE3FEF02F0036C080E035C41
:10040A00D8A01AEF02F0036E013602C001F0026AA8
:10041A00080E035CD8A01AEF02F0036E0136016AD7
:10042A000350D8A4D89024EF02F00350D8B424EF94
:10043A0002F0D89002320132032E1EEF02F00BBCFA
:10044A0001A031EF02F0D8A031EF02F0012AD8B4AE
:10045A00022A02BE4EEF02F00AAE53EF02F0021E6B
:10046A00011E012AD8B4022A53EF02F0026A016A75
:10047A0053EF02F00B800BAE57EF02F0026A0AAE9E
:10048A0057EF02F0FF0E026E016E0A36023257EF84
:10049A0002F0010E0C6EFDDE59EF02F0000E0C6E3A
:1004AA0059EF02F0FF0E0C6E0150006E0250016E01
:0204BA0012002E
:1004BC00C26AC00EC212C18CC18E0DC100F00036D2
:1004CC00009000360090003600900050C212C2809E
:1004DC00DADEC284C2A401D0FDD7C4CF01F0006A19
:0C04EC00C3500012000E0112C29012005A
:1004F8000450000A12E10550000A0FE10650000AF4
:100508000CE10750000A09E1FF0E006EFF0E016EB4
:100518007F0E026EFF0E036EA4D0086A096A0750A8
:10052800D8B427EF03F00350D8B42BEF03F00250F0
:1005380006180A6E028E068E0E6A02C008F001C006
:100548000CF000C00DF004500D5E0550D8A0053C1D
:100558000C5E0650D8A0063C085E086A0C6A0D6A54
:10056800D8A0BEEF02F0D890023201320032083231
:10057800010E0E6E0750035ED8A0CBEF02F07E0E80
:100588000E240326D8B02FEF03F0D1EF02F07E0E31
:100598000E240326D8A033EF03F0180E0B6E0D3689
:1005A8000C3608360036013602360E360450005E28
:1005B8000550D8A0053C015E0650D8A0063C025E56
:1005C80006340E120EA0ECEF02F00D80F7EF02F0E9
:1005D800045000260550D8B0053C01260650D8B076
:1005E800062802260D900B2ED3EF02F01DEF03F024
:1005F800D8900036013602360E360450005E05509B
:10060800D8A0053C015E0650D8A0063C025E063420
:100618000E10010B0D26D8B00C2AD8B4082AD8A47D
:100628001DEF03F008320C320D32032AD8B42FEF35
:1006380003F00AAE089E0850026E0C50016E0D5071
:10064800006E35EF03F0010ECCDD35EF03F0020E3E
:1006580061DD35EF03F0040EB1DD35EF03F0080E70
:0406680060DD12003F
:10066C00010E0101186F0EDD340E0C6EF10E0D6EC5
:10067C000D2EFED70C2EFCD700000000010E010140
:10068C00126F010E136FAF0E146F000E156FABDDF2
:02069C0012004A
:10069E00086A096A000E07620364D4EF03F0025081
:1006AE0006180A6E075003267E0ED8A065EF03F0DB
:1006BE00035ED8B0D8EF03F069EF03F0035ED8A065
:1006CE00DCEF03F0028E068E02C00EF001C00BF0BE
:1006DE0000C00DF000500402F4CF0CF001500502E2
:1006EE00F4CF00F0F3CF08F00402F3500C26F450D0
:1006FE000822000E00220D500502F3500C26F45075
:10070E000822000E002202500402F3500826F45074
:10071E00002202500502016A000E0122F35000264B
:10072E00F45001220D500602F3500826F450002218
:10073E00026A000E012202220B500602F35000261E
:10074E00F4500122000E02220E500602F350012632
:10075E00F450022202BEBCEF03F00836003601361A
:10076E0002360306D8B4DCEF03F0CFEF03F0D880E7
:10077E00800E08640030000E002201220222D8A052
:10078E00CFEF03F0023201320032034AD8EF03F00A
:10079E000AAE029E000EDEEF03F0010EB8DCDEEFB5
:1007AE0003F0020E08DDDEEF03F0040EB7DC1200DC
:1007BE00086A096A100E0C6E0134083609360450A8
:1007CE00085E0550D8A0053C095ED8B007D004508D
:1007DE0008260550D8B0053C0926D89000360136BB
:0607EE000C2EEAD71200F8
:1007F4000900F5CFE6FF0006FBE10106F9E112006E
:1008040081828180828A82888286340E0C6EF10E07
:100814000D6E0D2EFED70C2EFCD700000000819229
:100824008190829A82988296340E0C6EF10E0D6E2F
:0E0834000D2EFED70C2EFCD700000000120087
:10084200DC0E0001D06F010ED16F120ED26F010EBD
:10085200D36F760ED96F020EDA6F000EDB6F000EC9
:10086200DC6F880EE16F020EE26F000EE36F000E86
:10087200E46FFF0EDD6FFF0EDE6F000EDF6F000E06
:10088200E06FAC8A900EAB6E948E949C9EAA03D0BD
:08089200AECF00F0FBD712000D
:10089A00FF0E0001D56FFF0ED66FFF0ED76FFF0E4A
:1008AA00D86FC26AC00EC212C18CC18EC280120039
:1008BA00939C939E939A939893969394819C819EEA
:1008CA00819481968198819A39EC00F039EC00F094
:1008DA0039EC00F08188818A818C34EC00F0819CAB
:1008EA0039EC00F0818C34EC00F0819C39EC00F09A
:1008FA00818C34EC00F0819C39EC00F0819A818C77
:10090A0034EC00F0819C39EC00F0818C34EC00F07E
:10091A00819C81988184818C34EC00F0819C39EC33
:10092A0000F08194818A818C34EC00F0819C819A58
:10093A00818C34EC00F0819C39EC00F0818C34EC31
:10094A0000F0819C818A818C34EC00F0819C39EC26
:10095A0000F0819A818C34EC00F0819C818481863C
:10096A008188818A818C34EC00F0819C39EC00F01A
:06097A000001D48112000F
:1009800083DC0050010A0CE1F30E0101196F000E27
:100990001A6F5C0E1B6F000E1C6F110E1D6FA6DC14
:0209A000120043
:1009A200300E0101076F300E086F300E096F0A6BAF
:1009B2000B6B0C6B640E046E000E056E04C100F02E
:1009C20005C101F0FBDE0A0E046E000E056EF6DEB6
:1009D20008C000F009C001F0300E002600C007F187
:1009E2000A0E046E000E056E04C100F005C101F08E
:1009F200E5DE0A0E046E000E056EE0DE08C000F0B1
:100A020009C001F0300E0024086F0A0E046E000EB9
:100A1200056E04C100F005C101F0D0DE08C000F08F
:100A220009C001F0300E0024096F06C112F1070E51
:100A3200136F070E146F010E156FF9EC00F0120020
:100A4200F30E01010D6F000E0E6F0F6B110E106F82
:080A5200000E116F97DC120089
:100A5A00406A416A800E4118006E800E005C02E115
:100A6A00110E405C1BE2F30E4024E96E000E412099
:100A7A00EA6EEE50410A01E111D0BF0E4024E16E48
:100A8A00000E4120E26EF30E4024E96E000E412072
:100A9A00EA6EEECFE6FF404A412ADCD7010E010199
:100AAA00126F010E136F340E146F000E156FF9ECEE
:100ABA0000F0020E0101126F010E136FBF0E146FC8
:0A0ACA00000E156FF9EC00F01200A9
:100AD40001010D6BF1DC73DC6F0E046E120E056EFA
:100AE400030E066E800E076E05DD7DDC00C0F1F09E
:100AF40001C0F2F0010E01010D6FDEDC60DC000EBE
:100B0400046EC00E056E7F0E066E880E076EF2DC54
:100B1400000E046E000E056E480E066E860E076EFD
:100B2400BCDD61DC00C0EFF001C0F0F0800E011804
:100B3400026E800E025C02E1640E005C2FE394DD21
:100B4400030E0B6E080E0C6E770E0D6E0D2EFED777
:100B54000C2EFCD70B2EFAD7010E0101186F48ECAE
:100B640000F0010E0101126F010E136F9F0E146F3E
:100B7400000E156FF9EC00F0150E0B6E4B0E0C6E9B
:100B8400BE0E0D6E0D2EFED70C2EFCD70B2EFAD7F3
:100B94000000010E0101186F48EC00F00001800E06
:100BA400F219006E800E005C02E1280EF15D2FE365
:100BB4005BDD030E0B6E080E0C6E770E0D6E0D2EA4
:100BC400FED70C2EFCD70B2EFAD7010E0101186F9D
:100BD40048EC00F0010E0101126F010E136FB50E07
:100BE400146F000E156FF9EC00F0150E0B6E4B0E22
:100BF4000C6EBE0E0D6E0D2EFED70C2EFCD70B2EDA
:100C0400FAD70000010E0101186F48EC00F0120041
:100C1400406A416A800E4118006E800E005C02E159
:100C24000B0E405C2CE2000E411802E1090E401844
:100C340009E1E50E4024E16E000E4120E26E04C19C
:100C4400E6FF1AD0000E411802E10A0E401809E12D
:100C5400E50E4024E16E000E4120E26E420EE66E87
:100C64000BD0E50E4024E16E000E4120E26E300E02
:100C74004024006E00C0E6FF404A412ACBD7C59607
:100C8400E50E01010D6F000E0E6F5CEC01F0C586E0
:020C940012004C
:100C9600010E0101126F010E136F420E146F000E4A
:100CA600156FF9EC00F058B00CD0020E0101126F6E
:100CB600010E136F540E146F000E156FF9EC00F051
:100CC6000BD0020E0101126F010E136F510E146F3D
:100CD600000E156FF9EC00F058B20CD0020E0101AF
:100CE600126F040E136F220E146F000E156FF9ECBF
:100CF60000F00BD0020E0101126F040E136F1F0ECF
:100D0600146F000E156FF9EC00F058B40CD0020EFB
:100D16000101126F070E136F1B0E146F000E156F75
:100D2600F9EC00F00BD0020E0101126F070E136FE3
:100D3600260E146F000E156FF9EC00F058B60CD0A5
:100D4600020E0101126F0A0E136F300E146F000EA1
:100D5600156FF9EC00F00BD0020E0101126F0A0EAE
:100D6600136F2D0E146F000E156FF9EC00F058B8C6
:100D76000CD0020E0101126F0D0E136F290E146FA7
:100D8600000E156FF9EC00F00BD0020E0101126F88
:100D96000D0E136F590E146F000E156FF9EC00F05F
:020DA600120039
:100DA8007CEC0AF0040EC16E74DD936A3B0E926E01
:100DB800870E946E7EDD010E0101186F48EC00F07D
:100DC8000C0E0101186F48EC00F0010E0101126FC2
:100DD800010E136F7E0E146F000E156FF9EC00F004
:100DE800020E0101126F030E136F5E0E146F000ED8
:100DF800156FF9EC00F0030E0B6E080E0C6E770EF3
:100E08000D6E0D2EFED70C2EFCD70B2EFAD7406A8E
:100E1800416A800E4118006E800E005C02E1140EDB
:100E2800405C15E2180E0101186F48EC00F0090E3D
:100E38000B6E1E0E0C6EE40E0D6E0D2EFED70C2ED4
:100E4800FCD70B2EFAD70000404A412AE2D7D6DC5D
:100E5800340E0C6EF10E0D6E0D2EFED70C2EFCD737
:100E680000000000010E0101186F48EC00F0670E49
:100E7800AF6EAC84E2DC030E0B6E080E0C6E770EC0
:100E88000D6E0D2EFED70C2EFCD70B2EFAD7D66A78
:100E9800A00EF26EC80ED56E589A589C050E0B6EB1
:100EA8000F0E0C6EF10E0D6E0D2EFED70C2EFCD70C
:100EB8000B2EFAD70BDEFF51410A0BE0010100515E
:100EC800410A07E00151410A04E00251410A01E0E8
:100ED8004BD058BA49D00101010E186F48EC00F008
:100EE800340E0C6EF10E0D6E0D2EFED70C2EFCD7A7
:100EF80000000000FF51410A0BE001010051410AC6
:100F080007E00151410A04E00251410A01E02CD0F6
:100F180058BA2AD0C596340E0C6EF10E0D6E0D2EF1
:100F2800FED70C2EFCD70000000093DDC586340EDA
:100F38000C6EF10E0D6E0D2EFED70C2EFCD7000098
:100F48000000FF51410A0BE001010051410A07E08E
:100F58000151410A04E00251410A01E004D058BAA3
:100F680002D0B4DDD7D769DD0001FD51440A6EE136
:100F780058BC6CD0010E0101186F48EC00F0FD510F
:100F8800440A63E158BC61D0030E0B6E080E0C6E68
:100F9800770E0D6E0D2EFED70C2EFCD70B2EFAD722
:100FA800010E0101126F010E136F8D0E146F000EEA
:100FB800156FF9EC00F0F1C004F1F2C005F1010E73
:100FC8000101066FEADCDF0E0101176FA2EC00F0E9
:100FD800010E0101126F0C0E136F9D0E146F000E9F
:100FE800156FF9EC00F0020E0101126F010E136F7C
:100FF800960E146F000E156FF9EC00F0EFC004F1B7
:10100800F0C005F1020E0101066FC7DC020E0101F6
:10101800126F0B0E136F940E146F000E156FF9EC10
:1010280000F0030E0B6E080E0C6E770E0D6E0D2E73
:10103800FED70C2EFCD70B2EFAD7FD51440A04E13B
:1010480058BC02D043DDA0D7F8DCFED120DE80A852
:1010580004D0FD51510A01E05ED0340E0C6EF10E41
:101068000D6E0D2EFED70C2EFCD70000000080A8B8
:1010780004D0FD51510A01E04ED0DFDC587007DE84
:10108800340E0C6EF10E0D6E0D2EFED70C2EFCD705
:101098000000000058B002D0819201D08182340E45
:1010A8000C6EF10E0D6E0D2EFED70C2EFCD7000027
:1010B800000058A014D08084020E0B6E040E0C6E33
:1010C800BA0E0D6E0D2EFED70C2EFCD70B2EFAD7AE
:1010D8000000410E0101046F99DD809413D08084D3
:1010E800020E0B6E040E0C6EBA0E0D6E01010D2E63
:1010F800FDD70C2EFBD70B2EF9D70000420E046F3C
:1011080085DD809480B801D0FDD70101010E186FEC
:1011180048EC00F092DC80AA05D00001FD51570A86
:1011280001E05FD0340E0C6EF10E0D6E0D2EFED761
:101138000C2EFCD70000000080AA05D00001FD514C
:10114800570A01E04ED079DC5872A1DD340E0C6EDE
:10115800F10E0D6E0D2EFED70C2EFCD700000000F0
:1011680058B202D0819001D08180340E0C6EF10EFD
:101178000D6E0D2EFED70C2EFCD70000000058A2D5
:1011880014D08084020E0B6E040E0C6EBA0E0D6E17
:101198000D2EFED70C2EFCD70B2EFAD70000430ECF
:1011A8000101046F33DD809413D08084020E0B6E2E
:1011B800040E0C6EBA0E0D6E01010D2EFDD70C2E0D
:1011C800FBD70B2EF9D70000440E046F1FDD809467
:1011D80080BA01D0FDD70101010E186F48EC00F06C
:1011E8002CDC82A005D00001FD51450A01E05FD04A
:1011F800340E0C6EF10E0D6E0D2EFED70C2EFCD794
:101208000000000082A005D00001FD51450A01E060
:101218004ED058743CDD340E0C6EF10E0D6E0D2E52
:10122800FED70C2EFCD70000000058B402D0829ADA
:1012380001D0828A340E0C6EF10E0D6E0D2EFED783
:101248000C2EFCD70000000058A414D08084020E95
:101258000B6E040E0C6EBA0E0D6E0D2EFED70C2EF4
:10126800FCD70B2EFAD70000450E0101046FCEDC27
:10127800809413D08084020E0B6E040E0C6EBA0E8E
:101288000D6E01010D2EFDD70C2EFBD70B2EF9D7B5
:101298000000460E046FBADC809482B001D0FDD7FE
:1012A8000101010E186F48EC00F021EC05F082A254
:1012B80005D00001FD51520A01E05FD0340E0C6EDA
:1012C800F10E0D6E0D2EFED70C2EFCD7000000007F
:1012D80082A205D00001FD51520A01E04ED0587695
:1012E800D6DC340E0C6EF10E0D6E0D2EFED70C2EC4
:1012F800FCD70000000058B602D0829801D082883E
:10130800340E0C6EF10E0D6E0D2EFED70C2EFCD782
:101318000000000058B614D08084020E0B6E040E34
:101328000C6EBA0E0D6E0D2EFED70C2EFCD70B2EA2
:10133800FAD70000470E0101046F68DC809413D0CF
:101348008084020E0B6E040E0C6EBA0E0D6E010137
:101358000D2EFDD70C2EFBD70B2EF9D70000480E0B
:10136800046F54DC809482B201D0FDD70101010ED4
:10137800186F48EC00F021EC05F082A405D00001BC
:10138800FD51540A01E060D0340E0C6EF10E0D6E62
:101398000D2EFED70C2EFCD70000000082A405D02D
:1013A8000001FD51540A01E04FD0587870DC340E2A
:1013B8000C6EF10E0D6E0D2EFED70C2EFCD7000014
:1013C800000058B802D0829601D08286340E0C6E86
:1013D800F10E0D6E0D2EFED70C2EFCD7000000006E
:1013E80058A814D08084020E0B6E040E0C6EBA0E30
:1013F8000D6E0D2EFED70C2EFCD70B2EFAD7000043
:10140800490E0101046F02DC809414D08084020E1E
:101418000B6E040E0C6EBA0E0D6E01010D2EFDD76B
:101428000C2EFBD70B2EF9D700004A0E046F0AECDE
:1014380006F0809482B401D0FDD70101010E186F27
:0C14480048EC00F021EC05F035D5FFD792
:1014F80010EE1BF0A40E006E010E016E540EF66E77
:0E150800140EF76E000EF86EFAEC03F01200EF
:041454004F464600B9
:031458004F4E00F4
:04145B004F464600B2
:03145F004F4E00ED
:041462004F464600AB
:031466004F4E00E6
:041469004F464600A4
:0C146D00546869732069732049503A00EC
:02147900000071
:0F147B0052312052322052332052342052350049
:03148A004F4E00C2
:04148D004F46460080
:01149100005A
:031492004F4E00BA
:02149500420013
:1014970044455347494E45442042593A202A2A2079
:1014A70041484D4544204D41484459202A2A2000AF
:0F14B700536D617274526F6F6D202E2E2E2E00AA
:0714C60054656D703A20002F
:0214CD002500F8
:0714CF00474153203A2000C1
:0214D6004300D1
:1014D800484947482047415320494E54454E5300F8
:0614E800416C61726D0011
:0A14EE00484947482054454D50007E
:020000040030CA
:0D000100220F0EFF0181FF0FC00FE00F4026
:00000001FF
